{
  "_format": "hh-sol-artifact-1",
  "contractName": "Aegis",
  "sourceName": "contracts/Aegis.sol",
  "abi": [
    {
      "inputs": [
        {
          "internalType": "uint256",
          "name": "cap",
          "type": "uint256"
        },
        {
          "internalType": "uint256",
          "name": "_reward",
          "type": "uint256"
        }
      ],
      "stateMutability": "nonpayable",
      "type": "constructor"
    },
    {
      "inputs": [
        {
          "internalType": "uint256",
          "name": "increasedSupply",
          "type": "uint256"
        },
        {
          "internalType": "uint256",
          "name": "cap",
          "type": "uint256"
        }
      ],
      "name": "ERC20ExceededCap",
      "type": "error"
    },
    {
      "inputs": [
        {
          "internalType": "address",
          "name": "spender",
          "type": "address"
        },
        {
          "internalType": "uint256",
          "name": "allowance",
          "type": "uint256"
        },
        {
          "internalType": "uint256",
          "name": "needed",
          "type": "uint256"
        }
      ],
      "name": "ERC20InsufficientAllowance",
      "type": "error"
    },
    {
      "inputs": [
        {
          "internalType": "address",
          "name": "sender",
          "type": "address"
        },
        {
          "internalType": "uint256",
          "name": "balance",
          "type": "uint256"
        },
        {
          "internalType": "uint256",
          "name": "needed",
          "type": "uint256"
        }
      ],
      "name": "ERC20InsufficientBalance",
      "type": "error"
    },
    {
      "inputs": [
        {
          "internalType": "address",
          "name": "approver",
          "type": "address"
        }
      ],
      "name": "ERC20InvalidApprover",
      "type": "error"
    },
    {
      "inputs": [
        {
          "internalType": "uint256",
          "name": "cap",
          "type": "uint256"
        }
      ],
      "name": "ERC20InvalidCap",
      "type": "error"
    },
    {
      "inputs": [
        {
          "internalType": "address",
          "name": "receiver",
          "type": "address"
        }
      ],
      "name": "ERC20InvalidReceiver",
      "type": "error"
    },
    {
      "inputs": [
        {
          "internalType": "address",
          "name": "sender",
          "type": "address"
        }
      ],
      "name": "ERC20InvalidSender",
      "type": "error"
    },
    {
      "inputs": [
        {
          "internalType": "address",
          "name": "spender",
          "type": "address"
        }
      ],
      "name": "ERC20InvalidSpender",
      "type": "error"
    },
    {
      "anonymous": false,
      "inputs": [
        {
          "indexed": true,
          "internalType": "address",
          "name": "owner",
          "type": "address"
        },
        {
          "indexed": true,
          "internalType": "address",
          "name": "spender",
          "type": "address"
        },
        {
          "indexed": false,
          "internalType": "uint256",
          "name": "value",
          "type": "uint256"
        }
      ],
      "name": "Approval",
      "type": "event"
    },
    {
      "anonymous": false,
      "inputs": [
        {
          "indexed": true,
          "internalType": "address",
          "name": "from",
          "type": "address"
        },
        {
          "indexed": true,
          "internalType": "address",
          "name": "to",
          "type": "address"
        },
        {
          "indexed": false,
          "internalType": "uint256",
          "name": "value",
          "type": "uint256"
        }
      ],
      "name": "Transfer",
      "type": "event"
    },
    {
      "anonymous": false,
      "inputs": [
        {
          "indexed": true,
          "internalType": "address",
          "name": "_appUser",
          "type": "address"
        },
        {
          "indexed": false,
          "internalType": "uint256",
          "name": "_reward",
          "type": "uint256"
        }
      ],
      "name": "UserRewarded",
      "type": "event"
    },
    {
      "inputs": [
        {
          "internalType": "address",
          "name": "newOrganization",
          "type": "address"
        }
      ],
      "name": "addOrganization",
      "outputs": [],
      "stateMutability": "nonpayable",
      "type": "function"
    },
    {
      "inputs": [
        {
          "internalType": "address",
          "name": "owner",
          "type": "address"
        },
        {
          "internalType": "address",
          "name": "spender",
          "type": "address"
        }
      ],
      "name": "allowance",
      "outputs": [
        {
          "internalType": "uint256",
          "name": "",
          "type": "uint256"
        }
      ],
      "stateMutability": "view",
      "type": "function"
    },
    {
      "inputs": [
        {
          "internalType": "address",
          "name": "spender",
          "type": "address"
        },
        {
          "internalType": "uint256",
          "name": "value",
          "type": "uint256"
        }
      ],
      "name": "approve",
      "outputs": [
        {
          "internalType": "bool",
          "name": "",
          "type": "bool"
        }
      ],
      "stateMutability": "nonpayable",
      "type": "function"
    },
    {
      "inputs": [
        {
          "internalType": "address",
          "name": "account",
          "type": "address"
        }
      ],
      "name": "balanceOf",
      "outputs": [
        {
          "internalType": "uint256",
          "name": "",
          "type": "uint256"
        }
      ],
      "stateMutability": "view",
      "type": "function"
    },
    {
      "inputs": [
        {
          "internalType": "uint256",
          "name": "value",
          "type": "uint256"
        }
      ],
      "name": "burn",
      "outputs": [],
      "stateMutability": "nonpayable",
      "type": "function"
    },
    {
      "inputs": [
        {
          "internalType": "address",
          "name": "account",
          "type": "address"
        },
        {
          "internalType": "uint256",
          "name": "value",
          "type": "uint256"
        }
      ],
      "name": "burnFrom",
      "outputs": [],
      "stateMutability": "nonpayable",
      "type": "function"
    },
    {
      "inputs": [],
      "name": "cap",
      "outputs": [
        {
          "internalType": "uint256",
          "name": "",
          "type": "uint256"
        }
      ],
      "stateMutability": "view",
      "type": "function"
    },
    {
      "inputs": [],
      "name": "decimals",
      "outputs": [
        {
          "internalType": "uint8",
          "name": "",
          "type": "uint8"
        }
      ],
      "stateMutability": "view",
      "type": "function"
    },
    {
      "inputs": [
        {
          "internalType": "address",
          "name": "appUser",
          "type": "address"
        }
      ],
      "name": "mintReward",
      "outputs": [],
      "stateMutability": "nonpayable",
      "type": "function"
    },
    {
      "inputs": [],
      "name": "name",
      "outputs": [
        {
          "internalType": "string",
          "name": "",
          "type": "string"
        }
      ],
      "stateMutability": "view",
      "type": "function"
    },
    {
      "inputs": [],
      "name": "owner",
      "outputs": [
        {
          "internalType": "address payable",
          "name": "",
          "type": "address"
        }
      ],
      "stateMutability": "view",
      "type": "function"
    },
    {
      "inputs": [],
      "name": "redeemTokens",
      "outputs": [],
      "stateMutability": "nonpayable",
      "type": "function"
    },
    {
      "inputs": [],
      "name": "reward",
      "outputs": [
        {
          "internalType": "uint256",
          "name": "",
          "type": "uint256"
        }
      ],
      "stateMutability": "view",
      "type": "function"
    },
    {
      "inputs": [
        {
          "internalType": "uint256",
          "name": "_reward",
          "type": "uint256"
        }
      ],
      "name": "setReward",
      "outputs": [],
      "stateMutability": "nonpayable",
      "type": "function"
    },
    {
      "inputs": [],
      "name": "symbol",
      "outputs": [
        {
          "internalType": "string",
          "name": "",
          "type": "string"
        }
      ],
      "stateMutability": "view",
      "type": "function"
    },
    {
      "inputs": [],
      "name": "totalSupply",
      "outputs": [
        {
          "internalType": "uint256",
          "name": "",
          "type": "uint256"
        }
      ],
      "stateMutability": "view",
      "type": "function"
    },
    {
      "inputs": [
        {
          "internalType": "address",
          "name": "to",
          "type": "address"
        },
        {
          "internalType": "uint256",
          "name": "value",
          "type": "uint256"
        }
      ],
      "name": "transfer",
      "outputs": [
        {
          "internalType": "bool",
          "name": "",
          "type": "bool"
        }
      ],
      "stateMutability": "nonpayable",
      "type": "function"
    },
    {
      "inputs": [
        {
          "internalType": "address",
          "name": "from",
          "type": "address"
        },
        {
          "internalType": "address",
          "name": "to",
          "type": "address"
        },
        {
          "internalType": "uint256",
          "name": "value",
          "type": "uint256"
        }
      ],
      "name": "transferFrom",
      "outputs": [
        {
          "internalType": "bool",
          "name": "",
          "type": "bool"
        }
      ],
      "stateMutability": "nonpayable",
      "type": "function"
    }
  ],
  "bytecode": "0x60a06040523480156200001157600080fd5b5060405162002748380380620027488339818101604052810190620000379190620005eb565b62000047620001f760201b60201c565b600a620000559190620007c2565b8262000062919062000813565b6040518060400160405280600581526020017f41656769730000000000000000000000000000000000000000000000000000008152506040518060400160405280600381526020017f41454700000000000000000000000000000000000000000000000000000000008152508160039081620000df919062000ace565b508060049081620000f1919062000ace565b505050600081036200013d5760006040517f392e1e2700000000000000000000000000000000000000000000000000000000815260040162000134919062000bf8565b60405180910390fd5b80608081815250505033600560006101000a81548173ffffffffffffffffffffffffffffffffffffffff021916908373ffffffffffffffffffffffffffffffffffffffff160217905550620001e8600560009054906101000a900473ffffffffffffffffffffffffffffffffffffffff16620001be620001f760201b60201c565b600a620001cc9190620007c2565b620aae60620001dc919062000813565b6200020060201b60201c565b80600681905550505062000d4a565b60006012905090565b600073ffffffffffffffffffffffffffffffffffffffff168273ffffffffffffffffffffffffffffffffffffffff1603620002755760006040517fec442f050000000000000000000000000000000000000000000000000000000081526004016200026c919062000c5a565b60405180910390fd5b62000289600083836200028d60201b60201c565b5050565b620002a0838383620002a560201b60201c565b505050565b620002b88383836200036760201b60201c565b600073ffffffffffffffffffffffffffffffffffffffff168373ffffffffffffffffffffffffffffffffffffffff160362000362576000620002ff6200059760201b60201c565b9050600062000313620005a160201b60201c565b9050818111156200035f5780826040517f9e79f8540000000000000000000000000000000000000000000000000000000081526004016200035692919062000c88565b60405180910390fd5b50505b505050565b600073ffffffffffffffffffffffffffffffffffffffff168373ffffffffffffffffffffffffffffffffffffffff1603620003bd578060026000828254620003b0919062000cb5565b9250508190555062000493565b60008060008573ffffffffffffffffffffffffffffffffffffffff1673ffffffffffffffffffffffffffffffffffffffff168152602001908152602001600020549050818110156200044c578381836040517fe450d38c000000000000000000000000000000000000000000000000000000008152600401620004439392919062000cf0565b60405180910390fd5b8181036000808673ffffffffffffffffffffffffffffffffffffffff1673ffffffffffffffffffffffffffffffffffffffff16815260200190815260200160002081905550505b600073ffffffffffffffffffffffffffffffffffffffff168273ffffffffffffffffffffffffffffffffffffffff1603620004de57806002600082825403925050819055506200052b565b806000808473ffffffffffffffffffffffffffffffffffffffff1673ffffffffffffffffffffffffffffffffffffffff168152602001908152602001600020600082825401925050819055505b8173ffffffffffffffffffffffffffffffffffffffff168373ffffffffffffffffffffffffffffffffffffffff167fddf252ad1be2c89b69c2b068fc378daa952ba7f163c4a11628f55a4df523b3ef836040516200058a919062000d2d565b60405180910390a3505050565b6000608051905090565b6000600254905090565b600080fd5b6000819050919050565b620005c581620005b0565b8114620005d157600080fd5b50565b600081519050620005e581620005ba565b92915050565b60008060408385031215620006055762000604620005ab565b5b60006200061585828601620005d4565b92505060206200062885828601620005d4565b9150509250929050565b7f4e487b7100000000000000000000000000000000000000000000000000000000600052601160045260246000fd5b60008160011c9050919050565b6000808291508390505b6001851115620006c05780860481111562000698576200069762000632565b5b6001851615620006a85780820291505b8081029050620006b88562000661565b945062000678565b94509492505050565b600082620006db5760019050620007ae565b81620006eb5760009050620007ae565b81600181146200070457600281146200070f5762000745565b6001915050620007ae565b60ff84111562000724576200072362000632565b5b8360020a9150848211156200073e576200073d62000632565b5b50620007ae565b5060208310610133831016604e8410600b84101617156200077f5782820a90508381111562000779576200077862000632565b5b620007ae565b6200078e84848460016200066e565b92509050818404811115620007a857620007a762000632565b5b81810290505b9392505050565b600060ff82169050919050565b6000620007cf82620005b0565b9150620007dc83620007b5565b92506200080b7fffffffffffffffffffffffffffffffffffffffffffffffffffffffffffffffff8484620006c9565b905092915050565b60006200082082620005b0565b91506200082d83620005b0565b92508282026200083d81620005b0565b9150828204841483151762000857576200085662000632565b5b5092915050565b600081519050919050565b7f4e487b7100000000000000000000000000000000000000000000000000000000600052604160045260246000fd5b7f4e487b7100000000000000000000000000000000000000000000000000000000600052602260045260246000fd5b60006002820490506001821680620008e057607f821691505b602082108103620008f657620008f562000898565b5b50919050565b60008190508160005260206000209050919050565b60006020601f8301049050919050565b600082821b905092915050565b600060088302620009607fffffffffffffffffffffffffffffffffffffffffffffffffffffffffffffffff8262000921565b6200096c868362000921565b95508019841693508086168417925050509392505050565b6000819050919050565b6000620009af620009a9620009a384620005b0565b62000984565b620005b0565b9050919050565b6000819050919050565b620009cb836200098e565b620009e3620009da82620009b6565b8484546200092e565b825550505050565b600090565b620009fa620009eb565b62000a07818484620009c0565b505050565b5b8181101562000a2f5762000a23600082620009f0565b60018101905062000a0d565b5050565b601f82111562000a7e5762000a4881620008fc565b62000a538462000911565b8101602085101562000a63578190505b62000a7b62000a728562000911565b83018262000a0c565b50505b505050565b600082821c905092915050565b600062000aa36000198460080262000a83565b1980831691505092915050565b600062000abe838362000a90565b9150826002028217905092915050565b62000ad9826200085e565b67ffffffffffffffff81111562000af55762000af462000869565b5b62000b018254620008c7565b62000b0e82828562000a33565b600060209050601f83116001811462000b46576000841562000b31578287015190505b62000b3d858262000ab0565b86555062000bad565b601f19841662000b5686620008fc565b60005b8281101562000b805784890151825560018201915060208501945060208101905062000b59565b8683101562000ba0578489015162000b9c601f89168262000a90565b8355505b6001600288020188555050505b505050505050565b6000819050919050565b600062000be062000bda62000bd48462000bb5565b62000984565b620005b0565b9050919050565b62000bf28162000bbf565b82525050565b600060208201905062000c0f600083018462000be7565b92915050565b600073ffffffffffffffffffffffffffffffffffffffff82169050919050565b600062000c428262000c15565b9050919050565b62000c548162000c35565b82525050565b600060208201905062000c71600083018462000c49565b92915050565b62000c8281620005b0565b82525050565b600060408201905062000c9f600083018562000c77565b62000cae602083018462000c77565b9392505050565b600062000cc282620005b0565b915062000ccf83620005b0565b925082820190508082111562000cea5762000ce962000632565b5b92915050565b600060608201905062000d07600083018662000c49565b62000d16602083018562000c77565b62000d25604083018462000c77565b949350505050565b600060208201905062000d44600083018462000c77565b92915050565b6080516119e262000d66600039600061068d01526119e26000f3fe608060405234801561001057600080fd5b50600436106101165760003560e01c806342966c68116100a257806395d89b411161007157806395d89b41146102cf578063a9059cbb146102ed578063d68287df1461031d578063dd62ed3e14610339578063e9a9c50c1461036957610116565b806342966c681461024957806370a082311461026557806379cc6790146102955780638da5cb5b146102b157610116565b806323b872dd116100e957806323b872dd146101a5578063241d79e1146101d5578063293be456146101f1578063313ce5671461020d578063355274ea1461022b57610116565b806306fdde031461011b578063095ea7b31461013957806318160ddd14610169578063228cb73314610187575b600080fd5b610123610373565b6040516101309190611254565b60405180910390f35b610153600480360381019061014e919061130f565b610405565b604051610160919061136a565b60405180910390f35b610171610428565b60405161017e9190611394565b60405180910390f35b61018f610432565b60405161019c9190611394565b60405180910390f35b6101bf60048036038101906101ba91906113af565b610438565b6040516101cc919061136a565b60405180910390f35b6101ef60048036038101906101ea9190611402565b610467565b005b61020b6004803603810190610206919061142f565b6105c8565b005b610215610680565b6040516102229190611478565b60405180910390f35b610233610689565b6040516102409190611394565b60405180910390f35b610263600480360381019061025e919061142f565b6106b1565b005b61027f600480360381019061027a9190611402565b6106c5565b60405161028c9190611394565b60405180910390f35b6102af60048036038101906102aa919061130f565b61070d565b005b6102b961072d565b6040516102c691906114b4565b60405180910390f35b6102d7610753565b6040516102e49190611254565b60405180910390f35b6103076004803603810190610302919061130f565b6107e5565b604051610314919061136a565b60405180910390f35b61033760048036038101906103329190611402565b610808565b005b610353600480360381019061034e91906114cf565b6108f3565b6040516103609190611394565b60405180910390f35b61037161097a565b005b6060600380546103829061153e565b80601f01602080910402602001604051908101604052809291908181526020018280546103ae9061153e565b80156103fb5780601f106103d0576101008083540402835291602001916103fb565b820191906000526020600020905b8154815290600101906020018083116103de57829003601f168201915b5050505050905090565b600080610410610a6c565b905061041d818585610a74565b600191505092915050565b6000600254905090565b60065481565b600080610443610a6c565b9050610450858285610a86565b61045b858585610b1a565b60019150509392505050565b60011515600760003373ffffffffffffffffffffffffffffffffffffffff1673ffffffffffffffffffffffffffffffffffffffff16815260200190815260200160002060009054906101000a900460ff161515146104fa576040517f08c379a00000000000000000000000000000000000000000000000000000000081526004016104f1906115e1565b60405180910390fd5b600073ffffffffffffffffffffffffffffffffffffffff168173ffffffffffffffffffffffffffffffffffffffff1603610569576040517f08c379a00000000000000000000000000000000000000000000000000000000081526004016105609061164d565b60405180910390fd5b61057581600654610c0e565b8073ffffffffffffffffffffffffffffffffffffffff167fe366ef68d2c0620e9e4c5074fd7ad0ce6739b65287f9c2d09b7d002da556879b6006546040516105bd9190611394565b60405180910390a250565b600560009054906101000a900473ffffffffffffffffffffffffffffffffffffffff1673ffffffffffffffffffffffffffffffffffffffff163373ffffffffffffffffffffffffffffffffffffffff1614610658576040517f08c379a000000000000000000000000000000000000000000000000000000000815260040161064f906116df565b60405180910390fd5b610660610680565b600a61066c9190611861565b8161067791906118ac565b60068190555050565b60006012905090565b60007f0000000000000000000000000000000000000000000000000000000000000000905090565b6106c26106bc610a6c565b82610c90565b50565b60008060008373ffffffffffffffffffffffffffffffffffffffff1673ffffffffffffffffffffffffffffffffffffffff168152602001908152602001600020549050919050565b61071f82610719610a6c565b83610a86565b6107298282610c90565b5050565b600560009054906101000a900473ffffffffffffffffffffffffffffffffffffffff1681565b6060600480546107629061153e565b80601f016020809104026020016040519081016040528092919081815260200182805461078e9061153e565b80156107db5780601f106107b0576101008083540402835291602001916107db565b820191906000526020600020905b8154815290600101906020018083116107be57829003601f168201915b5050505050905090565b6000806107f0610a6c565b90506107fd818585610b1a565b600191505092915050565b600560009054906101000a900473ffffffffffffffffffffffffffffffffffffffff1673ffffffffffffffffffffffffffffffffffffffff163373ffffffffffffffffffffffffffffffffffffffff1614610898576040517f08c379a000000000000000000000000000000000000000000000000000000000815260040161088f906116df565b60405180910390fd5b6001600760008373ffffffffffffffffffffffffffffffffffffffff1673ffffffffffffffffffffffffffffffffffffffff16815260200190815260200160002060006101000a81548160ff02191690831515021790555050565b6000600160008473ffffffffffffffffffffffffffffffffffffffff1673ffffffffffffffffffffffffffffffffffffffff16815260200190815260200160002060008373ffffffffffffffffffffffffffffffffffffffff1673ffffffffffffffffffffffffffffffffffffffff16815260200190815260200160002054905092915050565b60011515600760003373ffffffffffffffffffffffffffffffffffffffff1673ffffffffffffffffffffffffffffffffffffffff16815260200190815260200160002060009054906101000a900460ff16151514610a0d576040517f08c379a0000000000000000000000000000000000000000000000000000000008152600401610a04906115e1565b60405180910390fd5b610a3b600560009054906101000a900473ffffffffffffffffffffffffffffffffffffffff166006546107e5565b50610a6a600560009054906101000a900473ffffffffffffffffffffffffffffffffffffffff16600654610c90565b565b600033905090565b610a818383836001610d12565b505050565b6000610a9284846108f3565b90507fffffffffffffffffffffffffffffffffffffffffffffffffffffffffffffffff8114610b145781811015610b04578281836040517ffb8f41b2000000000000000000000000000000000000000000000000000000008152600401610afb939291906118fd565b60405180910390fd5b610b1384848484036000610d12565b5b50505050565b600073ffffffffffffffffffffffffffffffffffffffff168373ffffffffffffffffffffffffffffffffffffffff1603610b8c5760006040517f96c6fd1e000000000000000000000000000000000000000000000000000000008152600401610b839190611934565b60405180910390fd5b600073ffffffffffffffffffffffffffffffffffffffff168273ffffffffffffffffffffffffffffffffffffffff1603610bfe5760006040517fec442f05000000000000000000000000000000000000000000000000000000008152600401610bf59190611934565b60405180910390fd5b610c09838383610ee9565b505050565b600073ffffffffffffffffffffffffffffffffffffffff168273ffffffffffffffffffffffffffffffffffffffff1603610c805760006040517fec442f05000000000000000000000000000000000000000000000000000000008152600401610c779190611934565b60405180910390fd5b610c8c60008383610ee9565b5050565b600073ffffffffffffffffffffffffffffffffffffffff168273ffffffffffffffffffffffffffffffffffffffff1603610d025760006040517f96c6fd1e000000000000000000000000000000000000000000000000000000008152600401610cf99190611934565b60405180910390fd5b610d0e82600083610ee9565b5050565b600073ffffffffffffffffffffffffffffffffffffffff168473ffffffffffffffffffffffffffffffffffffffff1603610d845760006040517fe602df05000000000000000000000000000000000000000000000000000000008152600401610d7b9190611934565b60405180910390fd5b600073ffffffffffffffffffffffffffffffffffffffff168373ffffffffffffffffffffffffffffffffffffffff1603610df65760006040517f94280d62000000000000000000000000000000000000000000000000000000008152600401610ded9190611934565b60405180910390fd5b81600160008673ffffffffffffffffffffffffffffffffffffffff1673ffffffffffffffffffffffffffffffffffffffff16815260200190815260200160002060008573ffffffffffffffffffffffffffffffffffffffff1673ffffffffffffffffffffffffffffffffffffffff168152602001908152602001600020819055508015610ee3578273ffffffffffffffffffffffffffffffffffffffff168473ffffffffffffffffffffffffffffffffffffffff167f8c5be1e5ebec7d5bd14f71427d1e84f3dd0314c0f7b2291e5b200ac8c7c3b92584604051610eda9190611394565b60405180910390a35b50505050565b610ef4838383610ef9565b505050565b610f04838383610f9f565b600073ffffffffffffffffffffffffffffffffffffffff168373ffffffffffffffffffffffffffffffffffffffff1603610f9a576000610f42610689565b90506000610f4e610428565b905081811115610f975780826040517f9e79f854000000000000000000000000000000000000000000000000000000008152600401610f8e92919061194f565b60405180910390fd5b50505b505050565b600073ffffffffffffffffffffffffffffffffffffffff168373ffffffffffffffffffffffffffffffffffffffff1603610ff1578060026000828254610fe59190611978565b925050819055506110c4565b60008060008573ffffffffffffffffffffffffffffffffffffffff1673ffffffffffffffffffffffffffffffffffffffff1681526020019081526020016000205490508181101561107d578381836040517fe450d38c000000000000000000000000000000000000000000000000000000008152600401611074939291906118fd565b60405180910390fd5b8181036000808673ffffffffffffffffffffffffffffffffffffffff1673ffffffffffffffffffffffffffffffffffffffff16815260200190815260200160002081905550505b600073ffffffffffffffffffffffffffffffffffffffff168273ffffffffffffffffffffffffffffffffffffffff160361110d578060026000828254039250508190555061115a565b806000808473ffffffffffffffffffffffffffffffffffffffff1673ffffffffffffffffffffffffffffffffffffffff168152602001908152602001600020600082825401925050819055505b8173ffffffffffffffffffffffffffffffffffffffff168373ffffffffffffffffffffffffffffffffffffffff167fddf252ad1be2c89b69c2b068fc378daa952ba7f163c4a11628f55a4df523b3ef836040516111b79190611394565b60405180910390a3505050565b600081519050919050565b600082825260208201905092915050565b60005b838110156111fe5780820151818401526020810190506111e3565b60008484015250505050565b6000601f19601f8301169050919050565b6000611226826111c4565b61123081856111cf565b93506112408185602086016111e0565b6112498161120a565b840191505092915050565b6000602082019050818103600083015261126e818461121b565b905092915050565b600080fd5b600073ffffffffffffffffffffffffffffffffffffffff82169050919050565b60006112a68261127b565b9050919050565b6112b68161129b565b81146112c157600080fd5b50565b6000813590506112d3816112ad565b92915050565b6000819050919050565b6112ec816112d9565b81146112f757600080fd5b50565b600081359050611309816112e3565b92915050565b6000806040838503121561132657611325611276565b5b6000611334858286016112c4565b9250506020611345858286016112fa565b9150509250929050565b60008115159050919050565b6113648161134f565b82525050565b600060208201905061137f600083018461135b565b92915050565b61138e816112d9565b82525050565b60006020820190506113a96000830184611385565b92915050565b6000806000606084860312156113c8576113c7611276565b5b60006113d6868287016112c4565b93505060206113e7868287016112c4565b92505060406113f8868287016112fa565b9150509250925092565b60006020828403121561141857611417611276565b5b6000611426848285016112c4565b91505092915050565b60006020828403121561144557611444611276565b5b6000611453848285016112fa565b91505092915050565b600060ff82169050919050565b6114728161145c565b82525050565b600060208201905061148d6000830184611469565b92915050565b600061149e8261127b565b9050919050565b6114ae81611493565b82525050565b60006020820190506114c960008301846114a5565b92915050565b600080604083850312156114e6576114e5611276565b5b60006114f4858286016112c4565b9250506020611505858286016112c4565b9150509250929050565b7f4e487b7100000000000000000000000000000000000000000000000000000000600052602260045260246000fd5b6000600282049050600182168061155657607f821691505b6020821081036115695761156861150f565b5b50919050565b7f4f6e6c7920616c6c6f776564206f7267616e697a6174696f6e732063616e207460008201527f72616e7366657220416567697320746f6b656e732e0000000000000000000000602082015250565b60006115cb6035836111cf565b91506115d68261156f565b604082019050919050565b600060208201905081810360008301526115fa816115be565b9050919050565b7f496e76616c6964207573657220616464726573732e0000000000000000000000600082015250565b60006116376015836111cf565b915061164282611601565b602082019050919050565b600060208201905081810360008301526116668161162a565b9050919050565b7f4f6e6c79206f776e65722063616e2075736520746869732066756e6374696f6e60008201527f2e00000000000000000000000000000000000000000000000000000000000000602082015250565b60006116c96021836111cf565b91506116d48261166d565b604082019050919050565b600060208201905081810360008301526116f8816116bc565b9050919050565b7f4e487b7100000000000000000000000000000000000000000000000000000000600052601160045260246000fd5b60008160011c9050919050565b6000808291508390505b600185111561178557808604811115611761576117606116ff565b5b60018516156117705780820291505b808102905061177e8561172e565b9450611745565b94509492505050565b60008261179e576001905061185a565b816117ac576000905061185a565b81600181146117c257600281146117cc576117fb565b600191505061185a565b60ff8411156117de576117dd6116ff565b5b8360020a9150848211156117f5576117f46116ff565b5b5061185a565b5060208310610133831016604e8410600b84101617156118305782820a90508381111561182b5761182a6116ff565b5b61185a565b61183d848484600161173b565b92509050818404811115611854576118536116ff565b5b81810290505b9392505050565b600061186c826112d9565b91506118778361145c565b92506118a47fffffffffffffffffffffffffffffffffffffffffffffffffffffffffffffffff848461178e565b905092915050565b60006118b7826112d9565b91506118c2836112d9565b92508282026118d0816112d9565b915082820484148315176118e7576118e66116ff565b5b5092915050565b6118f78161129b565b82525050565b600060608201905061191260008301866118ee565b61191f6020830185611385565b61192c6040830184611385565b949350505050565b600060208201905061194960008301846118ee565b92915050565b60006040820190506119646000830185611385565b6119716020830184611385565b9392505050565b6000611983826112d9565b915061198e836112d9565b92508282019050808211156119a6576119a56116ff565b5b9291505056fea264697066735822122009dc7f1ba35bac9750acfa6efaebf17a8b7f4e6fa08e12a99e8bd6aac39e4d1964736f6c63430008180033",
  "linkReferences": {},
  "deployedLinkReferences": {}
}